:100000000C9446000C9465000C9465000C946500FB
:100010000C9465000C9465000C9465000C946500CC
:100020000C9465000C9465000C9465000C946500BC
:100030000C9465000C94DE000C9465000C94650033
:100040000C9465000C9465000C9465000C9465009C
:100050000C9465000C9465000C9465000C9465008C
:100060000C9465000C9465000C9465000C9465007C
:100070000C9465000C9465000C9465000C9465006C
:100080000C9465000C9465000C94650011241FBE4F
:10009000CFEFD0E4DEBFCDBF11E0A0E0B1E0ECE4F3
:1000A000F6E000E00BBF02C007900D92A231B1074D
:1000B000D9F721E0A2E1B1E001C01D92AE31B20753
:1000C000E1F70E94DE020C941D030C940000CF9314
:1000D000DF9300D00F92CDB7DEB789837B836A832D
:1000E00089818A3031F48A819B81BC018DE00E9434
:1000F000670080EC90E0FC018081882F90E08072A6
:100100009927892BB1F386EC90E02981FC012083AB
:1001100080E090E00F900F900F90DF91CF910895C5
:10012000CF93DF93CDB7DEB781E890E02BE0FC0101
:10013000208388E890E02DE730E0FC0131832083C4
:100140008FE690E022E0FC01208384E890E0FC014F
:100150001182108280910E0190910F01A0911001E7
:10016000B09111018093130190931401A093150194
:10017000B09316018FE590E0FC0120818FE590E0BF
:100180002068FC0120830000DF91CF910895CF9378
:10019000DF93CDB7DEB781E890E0FC01108200006C
:1001A000DF91CF910895CF93DF93CDB7DEB781E094
:1001B000809312010000DF91CF9108951F920F925A
:1001C0000FB60F9211240BB60F922F933F934F93BC
:1001D0005F936F937F938F939F93AF93BF93EF93AF
:1001E000FF93CF93DF93CDB7DEB78091130190914A
:1001F0001401A0911501B09116010197A109B1094F
:100200008093130190931401A0931501B0931601EC
:100210008091130190911401A0911501B0911601E4
:10022000892B8A2B8B2B91F40E94D30080910E0195
:1002300090910F01A0911001B091110180931301D1
:1002400090931401A0931501B09316010000DF9163
:10025000CF91FF91EF91BF91AF919F918F917F913E
:100260006F915F914F913F912F910F900BBE0F9027
:100270000FBE0F901F901895CF93DF9300D000D042
:10028000CDB7DEB769837A838B839C8389819A811A
:10029000AB81BC8180930E0190930F01A09310015C
:1002A000B093110180910E0190910F01A091100166
:1002B000B09111018093130190931401A093150143
:1002C000B093160100000F900F900F900F90DF91E8
:1002D000CF910895CF93DF93CDB7DEB7809117010B
:1002E00090911801CC01A0E0B0E087309105A10504
:1002F000B10508F0D9C0815E9C4FFC010C94140339
:1003000081E090E0909318018093170187E080933B
:100310001B0110921C0110921A0185E290E02091BD
:100320001B01FC012083C5C080E290E0FC018081BC
:100330008095837080931D0180911D01813039F477
:1003400082E090E09093180180931701B2C08091F1
:100350001D01823039F483E090E09093180180937E
:100360001701A7C080911D01833039F484E090E02B
:1003700090931801809317019CC081E090E09093C6
:1003800018018093170195C080E290E0FC01808104
:100390008095837080931D0180911D01882319F041
:1003A00081E080931C0180911A018B3090F0809144
:1003B0001C01882371F080911D01882351F08091E8
:1003C0001B01882331F083E090E090931801809323
:1003D000170180911C01882359F080911D01882309
:1003E00039F485E090E0909318018093170161C083
:1003F00081E090E090931801809317015AC081E04A
:1004000090E0909318018093170153C080E290E030
:10041000FC0180818095837080931D0180911D0176
:10042000882319F081E080931C0180911A018B30A0
:10043000B8F080911C01882371F080911D01882300
:1004400051F080911B01893030F482E090E090936C
:1004500018018093170180911A018F5F80931A0110
:1004600080911C01882359F080911D01882339F463
:1004700086E090E090931801809317011AC081E004
:1004800090E0909318018093170113C081E090E0F1
:1004900090931801809317010CC081E090E0909335
:1004A00018018093170105C01092180110921701CE
:1004B000000080911701909118018630910509F490
:1004C00049C08730910508F070C08530910581F1F1
:1004D0008630910508F069C08430910509F45CC04C
:1004E0008530910508F061C08330910589F0843032
:1004F000910508F05AC08130910519F00297E1F199
:1005000054C085E290E020911B01FC01208352C081
:1005100080911B01882329F080911B0181508093D9
:100520001B0185E290E020911B01FC01208342C069
:1005300080911B01882329F080911B0181508093B9
:100540001B0110921C0185E290E020911B01FC012F
:10055000208330C080911B01893028F480911B01D9
:100560008F5F80931B0110921C0185E290E0209127
:100570001B01FC0120831EC080911B01893028F4DF
:1005800080911B018F5F80931B0185E290E0209199
:100590001B01FC0120830EC010921B0185E290E03C
:1005A00020911B01FC01208305C0109218011092BC
:1005B000170100000000DF91CF910895CF93DF93E2
:1005C000CDB7DEB781E290E0FC01108282E290E0DC
:1005D0002FEFFC01208384E290E02FEFFC012083C9
:1005E00085E290E0FC011082109218011092170130
:1005F00080E290E0FC018081809580931D0187E07E
:1006000080931B0164E670E080E090E00E943C0172
:100610000E9490000E946A010000809112018823CC
:10062000E1F310921201F6CFEE0FFF1F0024001C21
:100630000BBE0790F691E02D0994F894FFCF80014E
:0C06400094010602C4014D02FF014602B5
:10064C000000000200000000670000000000010034
:02065C0000009C
:00000001FF
