:100000000C9446000C9465000C9465000C946500FB
:100010000C9465000C9465000C9465000C946500CC
:100020000C9465000C9465000C9465000C946500BC
:100030000C9465000C94DE000C9465000C94650033
:100040000C9465000C9465000C9465000C9465009C
:100050000C9465000C9465000C9465000C9465008C
:100060000C9465000C9465000C9465000C9465007C
:100070000C9465000C9465000C9465000C9465006C
:100080000C9465000C9465000C94650011241FBE4F
:10009000CFEFD0E4DEBFCDBF11E0A0E0B1E0E6E5F8
:1000A000F6E000E00BBF02C007900D92A231B1074D
:1000B000D9F721E0A2E1B1E001C01D92AF31B20752
:1000C000E1F70E94F6020C9429030C940000CF93F0
:1000D000DF9300D00F92CDB7DEB789837B836A832D
:1000E00089818A3031F48A819B81BC018DE00E9434
:1000F000670080EC90E0FC018081882F90E08072A6
:100100009927892BB1F386EC90E02981FC012083AB
:1001100080E090E00F900F900F90DF91CF910895C5
:10012000CF93DF93CDB7DEB781E890E02BE0FC0101
:10013000208388E890E02DE730E0FC0131832083C4
:100140008FE690E022E0FC01208384E890E0FC014F
:100150001182108280910E0190910F01A0911001E7
:10016000B09111018093130190931401A093150194
:10017000B09316018FE590E0FC0120818FE590E0BF
:100180002068FC0120830000DF91CF910895CF9378
:10019000DF93CDB7DEB781E890E0FC01108200006C
:1001A000DF91CF910895CF93DF93CDB7DEB781E094
:1001B000809312010000DF91CF9108951F920F925A
:1001C0000FB60F9211240BB60F922F933F934F93BC
:1001D0005F936F937F938F939F93AF93BF93EF93AF
:1001E000FF93CF93DF93CDB7DEB78091130190914A
:1001F0001401A0911501B09116010197A109B1094F
:100200008093130190931401A0931501B0931601EC
:100210008091130190911401A0911501B0911601E4
:10022000892B8A2B8B2B91F40E94D30080910E0195
:1002300090910F01A0911001B091110180931301D1
:1002400090931401A0931501B09316010000DF9163
:10025000CF91FF91EF91BF91AF919F918F917F913E
:100260006F915F914F913F912F910F900BBE0F9027
:100270000FBE0F901F901895CF93DF9300D000D042
:10028000CDB7DEB769837A838B839C8389819A811A
:10029000AB81BC8180930E0190930F01A09310015C
:1002A000B093110180910E0190910F01A091100166
:1002B000B09111018093130190931401A093150143
:1002C000B093160100000F900F900F900F90DF91E8
:1002D000CF910895CF93DF93CDB7DEB7809118010A
:1002E000909119018530910509F4E3C0863091059C
:1002F00008F012C18430910509F4AFC08530910532
:1003000008F00AC18330910509F463C08430910577
:1003100008F002C18230910581F18330910508F027
:10032000FBC0009719F0019751F0F6C081E090E012
:10033000909319018093180110921A01F2C080E283
:1003400090E0FC018081882F90E08170992721E066
:10035000892B09F020E0822F80931E0110921D014D
:1003600010921C011092170182E090E09093190105
:100370008093180110921A01D4C080E290E0FC0131
:100380008081882F90E08170992721E0892B09F0E6
:1003900020E0822F80931D0180911D01882319F098
:1003A00081E08093170180911D01882321F48091C1
:1003B0001701882339F085E090E09093190180932C
:1003C0001801AFC083E090E0909319018093180169
:1003D000A8C080E290E0FC018081882F90E08170CD
:1003E000992721E0892B09F020E0822F80931D01BD
:1003F00080911D01882319F081E08093170180917D
:100400001D01882321F480911701882339F085E0AC
:1004100090E0909319018093180111C080911A0106
:10042000882339F484E090E09093190180931801B7
:1004300006C082E090E090931901809318018091AA
:100440001A01882F90E08170992721E0892B09F00B
:1004500020E0822F80931A0164C080E290E0FC01CA
:100460008081882F90E08170992721E0892B09F005
:1004700020E0822F80931D0180911D01882319F0B7
:1004800081E08093170180911D01882321F48091E0
:100490001701882339F085E090E09093190180934B
:1004A00018013FC083E090E09093190180931801F8
:1004B00038C080E290E0FC018081882F90E081705C
:1004C000992721E0892B09F020E0822F80931D01DC
:1004D00080911701882339F080911D01882319F438
:1004E0001092170118C080911D01882369F0809136
:1004F0001701882349F481E090E0909319018093DB
:10050000180110921A0107C085E090E0909319013C
:100510008093180106C005C01092190110921801AD
:10052000000080911801909119018530910509F41E
:1005300056C08630910508F054C08430910509F406
:1005400044C08530910508F04CC08330910599F185
:100550008430910508F045C08230910511F1833057
:10056000910508F03EC0009719F0019751F039C08D
:1005700081E090E0909319018093180110921A0184
:1005800031C081E080931B0185E290E020911B0146
:10059000FC01208382E090E0909319018093180180
:1005A00021C081E080931B0185E290E020911B0136
:1005B000FC01208317C082E080931B0185E290E05C
:1005C00020911B01FC0120830DC084E080931B015E
:1005D00085E290E020911B01FC01208303C0000014
:1005E00001C000000000DF91CF910895CF93DF9309
:1005F000CDB7DEB781E290E0FC01108282E290E0AC
:100600002FEFFC01208384E290E02FEFFC01208398
:1006100085E290E0FC0110821092190110921801FD
:1006200080E290E0FC018081809580931E0162E36E
:1006300070E080E090E00E943C010E9490000E94E7
:100640006A010000809112018823E1F310921201E7
:06065000F6CFF894FFCF85
:10065600000000020000000067000000000001002A
:02066600000092
:00000001FF
