:100000000C9446000C945D000C945D000C945D0013
:100010000C945D000C945D000C945D000C945D00EC
:100020000C945D000C945D000C945D000C945D00DC
:100030000C945D000C945D000C945D000C945D00CC
:100040000C945D000C945D000C945D000C945D00BC
:100050000C945D000C945D000C945D000C945D00AC
:100060000C945D000C945D000C945D000C945D009C
:100070000C945D000C945D000C945D000C945D008C
:100080000C945D000C945D000C945D0011241FBE67
:10009000CFEFD0E4DEBFCDBF11E0A0E0B1E0ECECEB
:1000A000F1E000E00BBF02C007900D92AE30B10747
:1000B000D9F70E9488000C94E4000C940000CF93C0
:1000C000DF9300D00F92CDB7DEB789837B836A833D
:1000D00089818A3031F48A819B81BC018DE00E9444
:1000E0005F0080EC90E0FC018081882F90E08072BE
:1000F0009927892BB1F386EC90E02981FC012083BC
:1001000080E090E00F900F900F90DF91CF910895D5
:10011000CF93DF9300D00F92CDB7DEB781E290E0AE
:10012000FC01108282E290E02FEFFC01208387E245
:1001300090E02FEFFC01208388E290E0FC01108228
:1001400019821A821B8280E290E0FC0180818095F6
:100150008F708B838B818D3020F08FE389831A829F
:1001600027C08B818A3020F08EE389831A8220C0D9
:100170008B81873020F08CE389831A8219C08B81B0
:10018000853020F088E389831A8212C08B81833006
:1001900028F080E3898380E48A830AC08B818823E6
:1001A00029F080E2898380E48A8302C019821A825E
:1001B00089818095982F9F738A81292F282B88E227
:0C01C00090E0FC012083BFCFF894FFCF3B
:0E01CC0000000002000000005F0000000000C4
:00000001FF
