:100000000C9446000C945D000C945D000C945D0013
:100010000C945D000C945D000C945D000C945D00EC
:100020000C945D000C945D000C945D000C945D00DC
:100030000C945D000C945D000C945D000C945D00CC
:100040000C945D000C945D000C945D000C945D00BC
:100050000C945D000C945D000C945D000C945D00AC
:100060000C945D000C945D000C945D000C945D009C
:100070000C945D000C945D000C945D000C945D008C
:100080000C945D000C945D000C945D0011241FBE67
:10009000CFEFD0E4DEBFCDBF11E0A0E0B1E0EAE2F7
:1000A000F3E000E00BBF02C007900D92AE30B10745
:1000B000D9F70E9499000C9493010C940000CF93FF
:1000C000DF9300D00F92CDB7DEB789837B836A833D
:1000D00089818A3031F48A819B81BC018DE00E9444
:1000E0005F0080EC90E0FC018081882F90E08072BE
:1000F0009927892BB1F386EC90E02981FC012083BC
:1001000080E090E00F900F900F90DF91CF910895D5
:10011000CF93DF93CDB7DEB78AE790E0FC01208173
:100120008AE790E0206EFC0120830000DF91CF91F0
:100130000895CF93DF9300D000D000D00F92CDB7B9
:10014000DEB781E290E0FC01108282E290E02FEFC6
:10015000FC01208384E290E02FEFFC01208385E204
:1001600090E0FC0110828AE290E02FEFFC012083F6
:100170008BE290E0FC0110828FE193E09A83898307
:1001800087E290E09C838B830E94880088E790E060
:10019000FC01808191819E838D8389819A819695CE
:1001A000879596958795969587952D813E8182179F
:1001B000930740F081E08F8385E290E02F81FC017E
:1001C0002083E4CF89819A81880F991F969587951E
:1001D00096958795969587952D813E8182179307F1
:1001E00040F083E08F8385E290E02F81FC01208343
:1001F000CDCF29813A81C901880F991F820F931FA2
:100200009695879596958795969587952D813E81AC
:100210008217930740F087E08F8385E290E02F817B
:10022000FC012083B3CF89819A81880F991F880FA1
:10023000991F9695879596958795969587952D8183
:100240003E818217930740F08FE08F8385E290E034
:100250002F81FC0120839ACF29813A81C901880F1F
:10026000991F880F991F820F931F969587959695D2
:100270008795969587952D813E818217930740F04B
:100280008FE18F8385E290E02F81FC0120837ECF78
:1002900029813A81C901880F991F820F931F880F06
:1002A000991F9695879596958795969587952D8113
:1002B0003E818217930740F08FE38F8385E290E0C1
:1002C0002F81FC01208362CF29813A81C901880FE7
:1002D000991F880F991F880F991F821B930B969562
:1002E000879596958795969587952D813E8182175E
:1002F000930740F08FE78F8385E290E02F81FC0128
:10030000208344CF89819A819F712D813E818217FC
:10031000930708F43BCF8FEF8F8385E290E02F8126
:0A032000FC01208333CFF894FFCFD7
:0E032A0000000002000000005F000000000064
:00000001FF
