:100000000C9446000C9465000C9465000C946500FB
:100010000C9465000C9465000C9465000C946500CC
:100020000C9465000C9465000C9465000C946500BC
:100030000C9465000C94DB010C9465000C94650035
:100040000C9465000C9465000C9465000C9465009C
:100050000C9465000C9465000C9465000C9465008C
:100060000C9465000C9465000C9465000C9465007C
:100070000C9465000C9465000C9465000C9465006C
:100080000C9465000C9465000C94650011241FBE4F
:10009000CFEFD0E4DEBFCDBF11E0A0E0B1E0E4EEF1
:1000A000F6E000E00BBF02C007900D92A231B1074D
:1000B000D9F721E0A2E1B1E001C01D92AE31B20753
:1000C000E1F70E9430030C9470030C940000CF936E
:1000D000DF93CDB7DEB781E00E948E000000DF9194
:1000E000CF910895CF93DF93CDB7DEB784E690E04C
:1000F0000E94330188E30E948E0086E00E948E00F9
:100100008FE00E948E0081E00E948E008AE090E0E5
:100110000E9433010000DF91CF910895CF93DF93C8
:100120000F92CDB7DEB789838BE290E0FC0120818E
:100130008BE290E02F7BFC01208388E290E0298114
:10014000FC0120838BE290E0FC0120818BE290E0B7
:100150002068FC01208300008BE290E0FC012081FC
:100160008BE290E02F77FC01208382E090E00E94F8
:10017000330100000F90DF91CF910895CF93DF936B
:100180000F92CDB7DEB789838BE290E0FC0120812E
:100190008BE290E02064FC01208388E290E02981DA
:1001A000FC0120838BE290E0FC0120818BE290E057
:1001B0002068FC01208300008BE290E0FC0120819C
:1001C0008BE290E02F77FC01208381E090E00E9499
:1001D000330100000F90DF91CF910895CF93DF930B
:1001E00000D000D0CDB7DEB78A837C836B830E94BA
:1001F00067008A81898311C0898191E0980F998372
:100200000E941C018B819C819C012F5F3F4F3C838E
:100210002B83FC0180810E94BE008B819C81FC01AC
:100220008081882349F7000000000F900F900F9005
:100230000F90DF91CF910895CF93DF930F92CDB7B9
:10024000DEB789838981813128F4898181580E94B0
:100250008E0004C0898181550E948E0000000F909D
:10026000DF91CF910895CF93DF9300D000D000D0DD
:10027000CDB7DEB79E838D831A82198213C01C828C
:100280001B8206C000008B819C8101969C838B831E
:100290008B819C8187309340ACF389819A81019650
:1002A0009A83898329813A818D819E812817390714
:1002B00034F30000000026960FB6F894DEBF0FBEA0
:1002C000CDBFDF91CF910895CF93DF9300D00F92F0
:1002D000CDB7DEB789837B836A8389818A3031F425
:1002E0008A819B81BC018DE00E94640180EC90E0DA
:1002F000FC018081882F90E080729927892BB1F3CF
:1003000086EC90E02981FC01208380E090E00F9052
:100310000F900F90DF91CF910895CF93DF93CDB7DA
:10032000DEB781E890E02BE0FC01208388E890E0D4
:100330002DE730E0FC01318320838FE690E022E05E
:10034000FC01208384E890E0FC01118210828091FE
:100350000E0190910F01A0911001B09111018093B5
:10036000130190931401A0931501B09316018FE52A
:1003700090E0FC0120818FE590E02068FC01208363
:100380000000DF91CF910895CF93DF93CDB7DEB713
:1003900081E890E0FC0110820000DF91CF91089588
:1003A000CF93DF93CDB7DEB781E0809312010000D9
:1003B000DF91CF9108951F920F920FB60F921124E3
:1003C0000BB60F922F933F934F935F936F937F934F
:1003D0008F939F93AF93BF93EF93FF93CF93DF934D
:1003E000CDB7DEB78091130190911401A091150152
:1003F000B09116010197A109B1098093130190935F
:100400001401A0931501B0931601809113019091EE
:100410001401A0911501B0911601892B8A2B8B2B09
:1004200091F40E94D00180910E0190910F01A09152
:100430001001B09111018093130190931401A093C6
:100440001501B09316010000DF91CF91FF91EF915C
:10045000BF91AF919F918F917F916F915F914F91DC
:100460003F912F910F900BBE0F900FBE0F901F90DA
:100470001895CF93DF9300D000D0CDB7DEB7698356
:100480007A838B839C8389819A81AB81BC818093A1
:100490000E0190930F01A0931001B0931101809170
:1004A0000E0190910F01A0911001B0911101809364
:1004B000130190931401A0931501B093160100004D
:1004C0000F900F900F900F90DF91CF910895CF93E1
:1004D000DF93CDB7DEB78091190190911A01009793
:1004E00019F0019771F0B3C081E090E090931A0188
:1004F000809319011092170110921C010E9467004D
:10050000ABC080E290E0FC01808180958370809395
:100510001D0181E00E941C0180911D01813021F4A8
:1005200081E0809318010FC080911D01823021F479
:1005300082E08093180107C080911D01833019F477
:1005400083E08093180180911801813061F580E289
:1005500090E0FC018081809580931D0180911701BE
:10056000893060F480911C01882341F0809117014B
:100570008F5F8093170110921C0163C08091170157
:10058000893050F480911D01813031F48091170140
:100590008F5F8093170155C081E090E090931A011E
:1005A000809319014EC080911801823061F580E27C
:1005B00090E0FC018081809580931D01809117015E
:1005C000882361F080911C01882341F080911701FC
:1005D00081508093170110921C0133C08091170144
:1005E000882351F080911D01823031F480911701F0
:1005F00081508093170125C081E090E090931A010B
:10060000809319011EC0809118018330A1F480E20B
:1006100090E0FC018081809580931D0180911D01F7
:10062000833011F41092170181E090E090931A0149
:100630008093190106C081E090E090931A018093A5
:10064000190180911701805D0E94BE0005C01092C3
:100650001A011092190100000000DF91CF91089556
:10066000CF93DF93CDB7DEB781E290E0FC0110823B
:1006700082E290E02FEFFC01208387E290E02FEFF1
:10068000FC01208388E290E0FC0110828AE290E085
:100690002FEFFC0120838BE290E0FC01108210928E
:1006A0001A011092190180E290E0FC01808180958E
:1006B00080931D011092170162E370E080E090E0EA
:1006C0000E9439020E948D010E9472000E946702FE
:1006D0000000809112018823E1F310921201F6CFFD
:0406E000F894FFCFBC
:1006E400000000020000000064010000000001009E
:0206F400000004
:00000001FF
