:100000000C9446000C9465000C9465000C946500FB
:100010000C9465000C9465000C9465000C946500CC
:100020000C9465000C9465000C9465000C946500BC
:100030000C9465000C94DE000C9465000C94650033
:100040000C9465000C9465000C9465000C9465009C
:100050000C9465000C9465000C9465000C9465008C
:100060000C9465000C9465000C9465000C9465007C
:100070000C9465000C9465000C9465000C9465006C
:100080000C9465000C9465000C94650011241FBE4F
:10009000CFEFD0E4DEBFCDBF11E0A0E0B1E0EEE6EF
:1000A000FAE000E00BBF02C007900D92A231B10749
:1000B000D9F721E0A2E1B1E001C01D92AF31B20752
:1000C000E1F70E9473030C9435050C940000CF9364
:1000D000DF9300D00F92CDB7DEB789837B836A832D
:1000E00089818A3031F48A819B81BC018DE00E9434
:1000F000670080EC90E0FC018081882F90E08072A6
:100100009927892BB1F386EC90E02981FC012083AB
:1001100080E090E00F900F900F90DF91CF910895C5
:10012000CF93DF93CDB7DEB781E890E02BE0FC0101
:10013000208388E890E02DE730E0FC0131832083C4
:100140008FE690E022E0FC01208384E890E0FC014F
:100150001182108280910E0190910F01A0911001E7
:10016000B09111018093130190931401A093150194
:10017000B09316018FE590E0FC0120818FE590E0BF
:100180002068FC0120830000DF91CF910895CF9378
:10019000DF93CDB7DEB781E890E0FC01108200006C
:1001A000DF91CF910895CF93DF93CDB7DEB781E094
:1001B000809312010000DF91CF9108951F920F925A
:1001C0000FB60F9211240BB60F922F933F934F93BC
:1001D0005F936F937F938F939F93AF93BF93EF93AF
:1001E000FF93CF93DF93CDB7DEB78091130190914A
:1001F0001401A0911501B09116010197A109B1094F
:100200008093130190931401A0931501B0931601EC
:100210008091130190911401A0911501B0911601E4
:10022000892B8A2B8B2B91F40E94D30080910E0195
:1002300090910F01A0911001B091110180931301D1
:1002400090931401A0931501B09316010000DF9163
:10025000CF91FF91EF91BF91AF919F918F917F913E
:100260006F915F914F913F912F910F900BBE0F9027
:100270000FBE0F901F901895CF93DF9300D000D042
:10028000CDB7DEB769837A838B839C8389819A811A
:10029000AB81BC8180930E0190930F01A09310015C
:1002A000B093110180910E0190910F01A091100166
:1002B000B09111018093130190931401A093150143
:1002C000B093160100000F900F900F900F90DF91E8
:1002D000CF910895CF93DF93CDB7DEB764970FB674
:1002E000F894DEBF0FBECDBF69837A838B839C8376
:1002F0008091170190911801A0911901B0911A01F4
:100300009C01AD0169817A818B819C810E94A1034E
:10031000882309F491C020E030E0A90169817A8145
:100320008B819C810E94A103882351F481E990E094
:10033000DC012C9181E990E02870FC01208309C048
:1003400081E990E0DC012C9181E990E02360FC01DF
:10035000208328E539E344E75FE369817A818B8173
:100360009C810E94A10388234CF488E990E02FEF40
:100370003FEFDC0111963C932E934DC020E034E218
:1003800044EF56E469817A818B819C810E94C30489
:10039000181634F488E990E0FC01118210823BC009
:1003A00020E030E040E053E469817A818B819C81D8
:1003B0000E94C80469877A878B879C8789859A857C
:1003C000AB85BC859C01AD0160E074E284EF9AE4EA
:1003D0000E94A6036D877E878F87988B8D859E856B
:1003E000AF85B8898D839E83AF83B8876D817E8109
:1003F0008F8198850E941804698B7A8B8B8B9C8BDC
:1004000089899A899C012150310988E990E0DC01B1
:1004100011963C932E9384E990E0FC0111821082A6
:1004200089819A81AB81BC818093170190931801D7
:10043000A0931901B0931A01000064960FB6F894C6
:10044000DEBF0FBECDBFDF91CF910895CF93DF9375
:10045000CDB7DEB780E990E020E4FC01208381E99C
:1004600090E02BE0FC01208360E070E0CB010E9473
:100470006A010000DF91CF910895CF93DF93CDB74C
:10048000DEB780E990E0FC01108281E990E0FC0198
:1004900010820000DF91CF910895CF93DF93CDB705
:1004A000DEB780911B0190911C018530910509F404
:1004B000A6C08630910508F0A9C08430910509F4E2
:1004C00084C08530910508F0A1C08330910509F4FE
:1004D00062C08430910508F099C08230910509F41A
:1004E00040C08330910508F091C0009719F0019742
:1004F00041F08CC081E090E090931C0180931B013F
:100500008AC080E290E0FC018081809587708093B2
:100510001E0180911E01813039F482E090E09093B9
:100520001C0180931B0177C080911E01823039F439
:1005300083E090E090931C0180931B016CC080913C
:100540001E01843039F484E090E090931C01809384
:100550001B0161C081E090E090931C0180931B011E
:100560005AC080E290E0FC01808180958770809382
:100570001E0180911E01813039F482E090E0909359
:100580001C0180931B0147C085E090E090931C0103
:1005900080931B0140C080E290E0FC018081809547
:1005A000877080931E0180911E01823039F483E0B0
:1005B00090E090931C0180931B012DC085E090E09A
:1005C00090931C0180931B0126C080E290E0FC0107
:1005D00080818095877080931E0180911E018430F8
:1005E00039F484E090E090931C0180931B0113C0C8
:1005F00085E090E090931C0180931B010CC081E08A
:1006000090E090931C0180931B0105C010921C0187
:1006100010921B01000080911B0190911C018530FC
:10062000910509F458C08630910508F057C0843010
:10063000910509F43EC08530910508F04FC0833024
:10064000910529F18430910508F048C08130910569
:1006500019F0029751F042C010921D0185E290E01E
:1006600020911D01FC0120833AC00E94260264EA09
:1006700070ED82E893E40E946A0181E080931D019D
:1006800085E290E020911D01FC01208328C00E949A
:1006900026026BE774ED82E993E40E946A0182E02E
:1006A00080931D0185E290E020911D01FC012083D3
:1006B00016C00E94260264EA70ED84EA93E40E9468
:1006C0006A0184E080931D0185E290E020911D0184
:1006D000FC01208304C00E943D0201C00000000014
:1006E000DF91CF910895CF93DF93CDB7DEB781E24D
:1006F00090E0FC01108282E290E02FEFFC01208369
:1007000084E290E02FEFFC01208385E290E0FC0181
:10071000108210921C0110921B0164E670E080E0D0
:1007200090E00E943C010E9490000E943D020E94C5
:100730004D020000809112018823E1F31092120112
:10074000F6CF0E944E0408F481E008950E94BA0397
:100750000C9489040E94820458F00E947B0440F0AB
:1007600029F45F3F29F00C94720451110C94BD04DC
:100770000C9478040E949A0468F39923B1F35523EA
:1007800091F3951B550BBB27AA27621773078407A4
:1007900038F09F5F5F4F220F331F441FAA1FA9F33A
:1007A00035D00E2E3AF0E0E832D091505040E69528
:1007B000001CCAF72BD0FE2F29D0660F771F881F89
:1007C000BB1F261737074807AB07B0E809F0BB0B7C
:1007D000802DBF01FF2793585F4F3AF09E3F510590
:1007E00078F00C9472040C94BD045F3FE4F3983EDF
:1007F000D4F3869577956795B795F7959F5FC9F779
:10080000880F911D9695879597F90895E1E0660FF9
:10081000771F881FBB1F621773078407BA0720F072
:10082000621B730B840BBA0BEE1F88F7E0950895DB
:100830000E941F046894B1110C94BD0408950E9495
:10084000A20488F09F5798F0B92F9927B751B0F0BC
:10085000E1F0660F771F881F991F1AF0BA95C9F744
:1008600014C0B13091F00E94BC04B1E008950C9422
:10087000BC04672F782F8827B85F39F0B93FCCF3D5
:10088000869577956795B395D9F73EF490958095C1
:10089000709561957F4F8F4F9F4F0895990F000876
:1008A000550FAA0BE0E8FEEF16161706E807F90742
:1008B000C0F012161306E407F50798F0621B730BDD
:1008C000840B950B39F40A2661F0232B242B252B5E
:1008D00021F408950A2609F4A140A6958FEF811D01
:1008E000811D089597F99F6780E870E060E00895A2
:1008F0009FEF80EC089500240A9416161706180638
:100900000906089500240A94121613061406050613
:100910000895092E0394000C11F4882352F0BB0FA4
:1009200040F4BF2B11F460FF04C06F5F7F4F8F4F07
:100930009F4F089557FD9058440F551F59F05F3F42
:1009400071F04795880F97FB991F61F09F3F79F0F1
:1009500087950895121613061406551FF2CF469573
:10096000F1DF08C0161617061806991FF1CF8695F5
:100970007105610508940895E894BB2766277727D9
:10098000CB0197F908950E944E0408F48FEF089563
:100990000E94DB040C9489040E947B0438F00E94BE
:1009A000820420F0952311F00C9472040C947804C6
:1009B00011240C94BD040E949A0470F3959FC1F316
:1009C000950F50E0551F629FF001729FBB27F00DFD
:1009D000B11D639FAA27F00DB11DAA1F649F662752
:1009E000B00DA11D661F829F2227B00DA11D621FA1
:1009F000739FB00DA11D621F839FA00D611D221F5B
:100A0000749F3327A00D611D231F849F600D211D3E
:100A1000822F762F6A2F11249F5750409AF0F1F0C1
:100A200088234AF0EE0FFF1FBB1F661F771F881F2A
:100A300091505040A9F79E3F510580F00C947204EC
:100A40000C94BD045F3FE4F3983ED4F3869577950C
:100A50006795B795F795E7959F5FC1F7FE2B880FD0
:0E0A6000911D9695879597F90895F894FFCF0C
:100A6E00000000020000000067000000000001000E
:020A7E00000076
:00000001FF
