:100000000C9446000C9465000C9465000C946500FB
:100010000C9465000C9465000C9465000C946500CC
:100020000C9465000C9465000C9465000C946500BC
:100030000C9465000C94DE000C9465000C94650033
:100040000C9465000C9465000C9465000C9465009C
:100050000C9465000C9465000C9465000C9465008C
:100060000C9465000C9465000C9465000C9465007C
:100070000C9465000C9465000C9465000C9465006C
:100080000C9465000C9465000C94650011241FBE4F
:10009000CFEFD0E4DEBFCDBF11E0A0E0B1E0E2ECF5
:1000A000F7E000E00BBF02C007900D92A831B10746
:1000B000D9F721E0A8E1B1E001C01D92AA32B20750
:1000C000E1F70E9423030C94DF030C940000CF930C
:1000D000DF9300D00F92CDB7DEB789837B836A832D
:1000E00089818A3031F48A819B81BC018DE00E9434
:1000F000670080EC90E0FC018081882F90E08072A6
:100100009927892BB1F386EC90E02981FC012083AB
:1001100080E090E00F900F900F90DF91CF910895C5
:10012000CF93DF93CDB7DEB781E890E02BE0FC0101
:10013000208388E890E02DE730E0FC0131832083C4
:100140008FE690E022E0FC01208384E890E0FC014F
:100150001182108280910E0190910F01A0911001E7
:10016000B09111018093190190931A01A0931B0182
:10017000B0931C018FE590E0FC0120818FE590E0B9
:100180002068FC0120830000DF91CF910895CF9378
:10019000DF93CDB7DEB781E890E0FC01108200006C
:1001A000DF91CF910895CF93DF93CDB7DEB781E094
:1001B000809318010000DF91CF9108951F920F9254
:1001C0000FB60F9211240BB60F922F933F934F93BC
:1001D0005F936F937F938F939F93AF93BF93EF93AF
:1001E000FF93CF93DF93CDB7DEB780911901909144
:1001F0001A01A0911B01B0911C010197A109B1093D
:100200008093190190931A01A0931B01B0931C01D4
:100210008091190190911A01A0911B01B0911C01CC
:10022000892B8A2B8B2B91F40E94D30080910E0195
:1002300090910F01A0911001B091110180931901CB
:1002400090931A01A0931B01B0931C010000DF9151
:10025000CF91FF91EF91BF91AF919F918F917F913E
:100260006F915F914F913F912F910F900BBE0F9027
:100270000FBE0F901F901895CF93DF9300D000D042
:10028000CDB7DEB769837A838B839C8389819A811A
:10029000AB81BC8180930E0190930F01A09310015C
:1002A000B093110180910E0190910F01A091100166
:1002B000B09111018093190190931A01A0931B0131
:1002C000B0931C0100000F900F900F900F90DF91E2
:1002D000CF910895CF93DF93CDB7DEB780911D0105
:1002E00090911E01009719F0019741F015C081E02F
:1002F00090E090931E0180931D0113C08091120124
:10030000843021F481E0809312010BC080911201AE
:10031000880F8093120105C010921E0110921D01DA
:1003200000000000DF91CF910895CF93DF93CDB708
:10033000DEB780911F0190912001009719F001977D
:1003400041F00DC081E090E09093200180931F0167
:100350000BC08091130180958093130105C010920A
:10036000200110921F0100000000DF91CF9108953D
:10037000CF93DF93CDB7DEB7809123019091240115
:100380008330910509F454C08430910508F06BC0A6
:100390008230910539F18330910508F064C00097EF
:1003A00019F0019761F05FC081E090E09093240123
:1003B0008093230110922701109228015AC080E2F5
:1003C00090E0FC0180818095809328018091280134
:1003D000843009F04DC082E090E090932401809336
:1003E000230146C080E290E0FC01808180958093EB
:1003F0002801809128018430A1F480912701882F61
:1004000090E08170992721E0892B09F020E0822F6C
:100410008093270182E090E0909324018093230150
:1004200028C081E090E0909324018093230121C0B3
:1004300080E290E0FC01808180958093280180918A
:100440002801843049F41092270183E090E09093D2
:100450002401809323010DC081E090E0909324015A
:100460008093230106C0109224011092230101C041
:1004700000000000DF91CF910895CF93DF93CDB7B7
:10048000DEB78091210190912201009719F0019728
:1004900041F028C081E090E09093220180932101F7
:1004A00026C080912701882F90E082959295907FB9
:1004B0009827807F9827282F207180911301882FFB
:1004C00090E0880F991F880F991F880F991F8870D7
:1004D000822B90911201282F292B85E290E0FC01BC
:1004E000208305C01092220110922101000000001B
:1004F000DF91CF910895CF93DF93CDB7DEB7809191
:100500002501909126018330910509F469C084305A
:10051000910508F08EC082309105C9F183309105B4
:1005200008F087C0009719F0019741F082C081E080
:1005300090E0909326018093250181C080E290E0B5
:10054000FC01808180958093280180912801813071
:1005500021F080912801823019F481E080932901F3
:1005600080912801813039F482E090E09093260157
:100570008093250163C080912801823009F05EC01C
:1005800083E090E0909326018093250157C080E29C
:1005900090E0FC0180818095809328018091290161
:1005A000882361F080911401853028F48091140132
:1005B0008F5F809314011092290141C0809128011E
:1005C000882339F481E090E09093260180932501FF
:1005D00036C082E090E090932601809325012FC0E1
:1005E00080E290E0FC0180818095809328018091D9
:1005F0002901882361F080911401823028F08091D4
:1006000014018150809314011092290118C0809127
:100610002801882339F481E090E0909326018093AB
:1006200025010DC083E090E0909326018093250181
:1006300006C0109226011092250101C000000000A2
:10064000DF91CF910895CF93DF93CDB7DEB72C978D
:100650000FB6F894DEBF0FBECDBF81E290E0FC0183
:10066000108282E290E02FEFFC01208384E290E090
:100670002FEFFC01208385E290E0FC0110821982BB
:100680001A821B821C821D821E821F821886198676
:100690001A861B861C8661E070E080E090E00E9474
:1006A0003C010E94900010921E0110921D011092B8
:1006B000200110921F01109222011092210110922C
:1006C00024011092230110922601109225010E940C
:1006D00095010E946A010E94B80189819A81AB81CB
:1006E000BC81883E9340A105B10530F00E94950180
:1006F00019821A821B821C828D819E81AF81B885EE
:100700008C329140A105B10530F00E946A011D8232
:100710001E821F82188680911401882F90E0A0E02D
:10072000B0E049855A856B857C85481759076A076B
:100730007B0730F00E94B80119861A861B861C863A
:100740000E943D020E947B0281E090E0CC01A0E08B
:10075000B0E049815A816B817C81840F951FA61F6F
:10076000B71F89839A83AB83BC8381E090E0CC017F
:10077000A0E0B0E04D815E816F817885840F951F88
:10078000A61FB71F8D839E83AF83B88781E090E05B
:10079000CC01A0E0B0E049855A856B857C85840F4B
:1007A000951FA61FB71F89879A87AB87BC87000054
:1007B000809118018823E1F3109218018ECFF894EC
:0207C000FFCF69
:1007C20000000002000000006700000000000100BD
:0807D20000000101010100001B
:00000001FF
